{
    "_format": "hh-sol-artifact-1",
    "contractName": "MedicalCredential",
    "sourceName": "contracts/MedicalCredential.sol",
    "abi": [
        {
            "inputs": [],
            "stateMutability": "nonpayable",
            "type": "constructor"
        },
        {
            "inputs": [],
            "name": "admin",
            "outputs": [
                {
                    "internalType": "address",
                    "name": "",
                    "type": "address"
                }
            ],
            "stateMutability": "view",
            "type": "function"
        },
        {
            "inputs": [
                {
                    "internalType": "address",
                    "name": "",
                    "type": "address"
                }
            ],
            "name": "credentials",
            "outputs": [
                {
                    "internalType": "string",
                    "name": "name",
                    "type": "string"
                },
                {
                    "internalType": "string",
                    "name": "role",
                    "type": "string"
                },
                {
                    "internalType": "string",
                    "name": "hospital",
                    "type": "string"
                },
                {
                    "internalType": "string",
                    "name": "licenseId",
                    "type": "string"
                },
                {
                    "internalType": "uint256",
                    "name": "issuedAt",
                    "type": "uint256"
                },
                {
                    "internalType": "bool",
                    "name": "isValid",
                    "type": "bool"
                }
            ],
            "stateMutability": "view",
            "type": "function"
        },
        {
            "inputs": [],
            "name": "getAdmin",
            "outputs": [
                {
                    "internalType": "address",
                    "name": "",
                    "type": "address"
                }
            ],
            "stateMutability": "view",
            "type": "function"
        },
        {
            "inputs": [
                {
                    "internalType": "address",
                    "name": "_staff",
                    "type": "address"
                },
                {
                    "internalType": "string",
                    "name": "_name",
                    "type": "string"
                },
                {
                    "internalType": "string",
                    "name": "_role",
                    "type": "string"
                },
                {
                    "internalType": "string",
                    "name": "_hospital",
                    "type": "string"
                },
                {
                    "internalType": "string",
                    "name": "_licenseId",
                    "type": "string"
                }
            ],
            "name": "issueCredential",
            "outputs": [],
            "stateMutability": "nonpayable",
            "type": "function"
        },
        {
            "inputs": [
                {
                    "internalType": "address",
                    "name": "_staff",
                    "type": "address"
                }
            ],
            "name": "revokeCredential",
            "outputs": [],
            "stateMutability": "nonpayable",
            "type": "function"
        },
        {
            "inputs": [
                {
                    "internalType": "address",
                    "name": "_staff",
                    "type": "address"
                }
            ],
            "name": "verifyCredential",
            "outputs": [
                {
                    "internalType": "string",
                    "name": "name",
                    "type": "string"
                },
                {
                    "internalType": "string",
                    "name": "role",
                    "type": "string"
                },
                {
                    "internalType": "string",
                    "name": "hospital",
                    "type": "string"
                },
                {
                    "internalType": "string",
                    "name": "licenseId",
                    "type": "string"
                },
                {
                    "internalType": "uint256",
                    "name": "issuedAt",
                    "type": "uint256"
                },
                {
                    "internalType": "bool",
                    "name": "isValid",
                    "type": "bool"
                }
            ],
            "stateMutability": "view",
            "type": "function"
        }
    ],
    "bytecode": "0x6080604052348015600f57600080fd5b50336000806101000a81548173ffffffffffffffffffffffffffffffffffffffff021916908373ffffffffffffffffffffffffffffffffffffffff1602179055506111388061005f6000396000f3fe608060405234801561001057600080fd5b50600436106100625760003560e01c80631dee2fdf146100675780636016dd4a14610083578063638bf77e146100b85780636e9960c3146100d457806370dd0dbc146100f2578063f851a44014610127575b600080fd5b610081600480360381019061007c91906109da565b610145565b005b61009d600480360381019061009891906109da565b610231565b6040516100af96959493929190610acb565b60405180910390f35b6100d260048036038101906100cd9190610c7d565b61049a565b005b6100dc610623565b6040516100e99190610d77565b60405180910390f35b61010c600480360381019061010791906109da565b61064c565b60405161011e96959493929190610acb565b60405180910390f35b61012f610944565b60405161013c9190610d77565b60405180910390f35b60008054906101000a900473ffffffffffffffffffffffffffffffffffffffff1673ffffffffffffffffffffffffffffffffffffffff163373ffffffffffffffffffffffffffffffffffffffff16146101d3576040517f08c379a00000000000000000000000000000000000000000000000000000000081526004016101ca90610e04565b60405180910390fd5b6000600160008373ffffffffffffffffffffffffffffffffffffffff1673ffffffffffffffffffffffffffffffffffffffff16815260200190815260200160002060050160006101000a81548160ff02191690831515021790555050565b600160205280600052604060002060009150905080600001805461025490610e53565b80601f016020809104026020016040519081016040528092919081815260200182805461028090610e53565b80156102cd5780601f106102a2576101008083540402835291602001916102cd565b820191906000526020600020905b8154815290600101906020018083116102b057829003601f168201915b5050505050908060010180546102e290610e53565b80601f016020809104026020016040519081016040528092919081815260200182805461030e90610e53565b801561035b5780601f106103305761010080835404028352916020019161035b565b820191906000526020600020905b81548152906001019060200180831161033e57829003601f168201915b50505050509080600201805461037090610e53565b80601f016020809104026020016040519081016040528092919081815260200182805461039c90610e53565b80156103e95780601f106103be576101008083540402835291602001916103e9565b820191906000526020600020905b8154815290600101906020018083116103cc57829003601f168201915b5050505050908060030180546103fe90610e53565b80601f016020809104026020016040519081016040528092919081815260200182805461042a90610e53565b80156104775780601f1061044c57610100808354040283529160200191610477565b820191906000526020600020905b81548152906001019060200180831161045a57829003601f168201915b5050505050908060040154908060050160009054906101000a900460ff16905086565b60008054906101000a900473ffffffffffffffffffffffffffffffffffffffff1673ffffffffffffffffffffffffffffffffffffffff163373ffffffffffffffffffffffffffffffffffffffff1614610528576040517f08c379a000000000000000000000000000000000000000000000000000000000815260040161051f90610e04565b60405180910390fd5b6040518060c0016040528085815260200184815260200183815260200182815260200142815260200160011515815250600160008773ffffffffffffffffffffffffffffffffffffffff1673ffffffffffffffffffffffffffffffffffffffff16815260200190815260200160002060008201518160000190816105ac9190611030565b5060208201518160010190816105c29190611030565b5060408201518160020190816105d89190611030565b5060608201518160030190816105ee9190611030565b506080820151816004015560a08201518160050160006101000a81548160ff0219169083151502179055509050505050505050565b60008060009054906101000a900473ffffffffffffffffffffffffffffffffffffffff16905090565b6060806060806000806000600160008973ffffffffffffffffffffffffffffffffffffffff1673ffffffffffffffffffffffffffffffffffffffff1681526020019081526020016000206040518060c00160405290816000820180546106b190610e53565b80601f01602080910402602001604051908101604052809291908181526020018280546106dd90610e53565b801561072a5780601f106106ff5761010080835404028352916020019161072a565b820191906000526020600020905b81548152906001019060200180831161070d57829003601f168201915b5050505050815260200160018201805461074390610e53565b80601f016020809104026020016040519081016040528092919081815260200182805461076f90610e53565b80156107bc5780601f10610791576101008083540402835291602001916107bc565b820191906000526020600020905b81548152906001019060200180831161079f57829003601f168201915b505050505081526020016002820180546107d590610e53565b80601f016020809104026020016040519081016040528092919081815260200182805461080190610e53565b801561084e5780601f106108235761010080835404028352916020019161084e565b820191906000526020600020905b81548152906001019060200180831161083157829003601f168201915b5050505050815260200160038201805461086790610e53565b80601f016020809104026020016040519081016040528092919081815260200182805461089390610e53565b80156108e05780601f106108b5576101008083540402835291602001916108e0565b820191906000526020600020905b8154815290600101906020018083116108c357829003601f168201915b50505050508152602001600482015481526020016005820160009054906101000a900460ff1615151515815250509050806000015181602001518260400151836060015184608001518560a001519650965096509650965096505091939550919395565b60008054906101000a900473ffffffffffffffffffffffffffffffffffffffff1681565b6000604051905090565b600080fd5b600080fd5b600073ffffffffffffffffffffffffffffffffffffffff82169050919050565b60006109a78261097c565b9050919050565b6109b78161099c565b81146109c257600080fd5b50565b6000813590506109d4816109ae565b92915050565b6000602082840312156109f0576109ef610972565b5b60006109fe848285016109c5565b91505092915050565b600081519050919050565b600082825260208201905092915050565b60005b83811015610a41578082015181840152602081019050610a26565b60008484015250505050565b6000601f19601f8301169050919050565b6000610a6982610a07565b610a738185610a12565b9350610a83818560208601610a23565b610a8c81610a4d565b840191505092915050565b6000819050919050565b610aaa81610a97565b82525050565b60008115159050919050565b610ac581610ab0565b82525050565b600060c0820190508181036000830152610ae58189610a5e565b90508181036020830152610af98188610a5e565b90508181036040830152610b0d8187610a5e565b90508181036060830152610b218186610a5e565b9050610b306080830185610aa1565b610b3d60a0830184610abc565b979650505050505050565b600080fd5b600080fd5b7f4e487b7100000000000000000000000000000000000000000000000000000000600052604160045260246000fd5b610b8a82610a4d565b810181811067ffffffffffffffff82111715610ba957610ba8610b52565b5b80604052505050565b6000610bbc610968565b9050610bc88282610b81565b919050565b600067ffffffffffffffff821115610be857610be7610b52565b5b610bf182610a4d565b9050602081019050919050565b82818337600083830152505050565b6000610c20610c1b84610bcd565b610bb2565b905082815260208101848484011115610c3c57610c3b610b4d565b5b610c47848285610bfe565b509392505050565b600082601f830112610c6457610c63610b48565b5b8135610c74848260208601610c0d565b91505092915050565b600080600080600060a08688031215610c9957610c98610972565b5b6000610ca7888289016109c5565b955050602086013567ffffffffffffffff811115610cc857610cc7610977565b5b610cd488828901610c4f565b945050604086013567ffffffffffffffff811115610cf557610cf4610977565b5b610d0188828901610c4f565b935050606086013567ffffffffffffffff811115610d2257610d21610977565b5b610d2e88828901610c4f565b925050608086013567ffffffffffffffff811115610d4f57610d4e610977565b5b610d5b88828901610c4f565b9150509295509295909350565b610d718161099c565b82525050565b6000602082019050610d8c6000830184610d68565b92915050565b7f4f6e6c792061646d696e2063616e20706572666f726d2074686973206163746960008201527f6f6e000000000000000000000000000000000000000000000000000000000000602082015250565b6000610dee602283610a12565b9150610df982610d92565b604082019050919050565b60006020820190508181036000830152610e1d81610de1565b9050919050565b7f4e487b7100000000000000000000000000000000000000000000000000000000600052602260045260246000fd5b60006002820490506001821680610e6b57607f821691505b602082108103610e7e57610e7d610e24565b5b50919050565b60008190508160005260206000209050919050565b60006020601f8301049050919050565b600082821b905092915050565b600060088302610ee67fffffffffffffffffffffffffffffffffffffffffffffffffffffffffffffffff82610ea9565b610ef08683610ea9565b95508019841693508086168417925050509392505050565b6000819050919050565b6000610f2d610f28610f2384610a97565b610f08565b610a97565b9050919050565b6000819050919050565b610f4783610f12565b610f5b610f5382610f34565b848454610eb6565b825550505050565b600090565b610f70610f63565b610f7b818484610f3e565b505050565b5b81811015610f9f57610f94600082610f68565b600181019050610f81565b5050565b601f821115610fe457610fb581610e84565b610fbe84610e99565b81016020851015610fcd578190505b610fe1610fd985610e99565b830182610f80565b50505b505050565b600082821c905092915050565b600061100760001984600802610fe9565b1980831691505092915050565b60006110208383610ff6565b9150826002028217905092915050565b61103982610a07565b67ffffffffffffffff81111561105257611051610b52565b5b61105c8254610e53565b611067828285610fa3565b600060209050601f83116001811461109a5760008415611088578287015190505b6110928582611014565b8655506110fa565b601f1984166110a886610e84565b60005b828110156110d0578489015182556001820191506020850194506020810190506110ab565b868310156110ed57848901516110e9601f891682610ff6565b8355505b6001600288020188555050505b50505050505056fea26469706673582212203d950c7f78ae06b828ff4e3a920b0b5ccf64fbdb07dae098a8331cee5416572664736f6c634300081c0033",
    "linkReferences": {},
    "deployedLinkReferences": {}
}